{
  "_format": "hh-sol-artifact-1",
  "contractName": "ProofBadge",
  "sourceName": "contracts/ProofBadge.sol",
  "abi": [
    {
      "inputs": [],
      "stateMutability": "nonpayable",
      "type": "constructor"
    },
    {
      "inputs": [
        {
          "internalType": "address",
          "name": "sender",
          "type": "address"
        },
        {
          "internalType": "uint256",
          "name": "tokenId",
          "type": "uint256"
        },
        {
          "internalType": "address",
          "name": "owner",
          "type": "address"
        }
      ],
      "name": "ERC721IncorrectOwner",
      "type": "error"
    },
    {
      "inputs": [
        {
          "internalType": "address",
          "name": "operator",
          "type": "address"
        },
        {
          "internalType": "uint256",
          "name": "tokenId",
          "type": "uint256"
        }
      ],
      "name": "ERC721InsufficientApproval",
      "type": "error"
    },
    {
      "inputs": [
        {
          "internalType": "address",
          "name": "approver",
          "type": "address"
        }
      ],
      "name": "ERC721InvalidApprover",
      "type": "error"
    },
    {
      "inputs": [
        {
          "internalType": "address",
          "name": "operator",
          "type": "address"
        }
      ],
      "name": "ERC721InvalidOperator",
      "type": "error"
    },
    {
      "inputs": [
        {
          "internalType": "address",
          "name": "owner",
          "type": "address"
        }
      ],
      "name": "ERC721InvalidOwner",
      "type": "error"
    },
    {
      "inputs": [
        {
          "internalType": "address",
          "name": "receiver",
          "type": "address"
        }
      ],
      "name": "ERC721InvalidReceiver",
      "type": "error"
    },
    {
      "inputs": [
        {
          "internalType": "address",
          "name": "sender",
          "type": "address"
        }
      ],
      "name": "ERC721InvalidSender",
      "type": "error"
    },
    {
      "inputs": [
        {
          "internalType": "uint256",
          "name": "tokenId",
          "type": "uint256"
        }
      ],
      "name": "ERC721NonexistentToken",
      "type": "error"
    },
    {
      "anonymous": false,
      "inputs": [
        {
          "indexed": true,
          "internalType": "address",
          "name": "owner",
          "type": "address"
        },
        {
          "indexed": true,
          "internalType": "address",
          "name": "approved",
          "type": "address"
        },
        {
          "indexed": true,
          "internalType": "uint256",
          "name": "tokenId",
          "type": "uint256"
        }
      ],
      "name": "Approval",
      "type": "event"
    },
    {
      "anonymous": false,
      "inputs": [
        {
          "indexed": true,
          "internalType": "address",
          "name": "owner",
          "type": "address"
        },
        {
          "indexed": true,
          "internalType": "address",
          "name": "operator",
          "type": "address"
        },
        {
          "indexed": false,
          "internalType": "bool",
          "name": "approved",
          "type": "bool"
        }
      ],
      "name": "ApprovalForAll",
      "type": "event"
    },
    {
      "anonymous": false,
      "inputs": [
        {
          "indexed": true,
          "internalType": "address",
          "name": "student",
          "type": "address"
        },
        {
          "indexed": true,
          "internalType": "uint256",
          "name": "tokenId",
          "type": "uint256"
        },
        {
          "indexed": true,
          "internalType": "uint256",
          "name": "eventId",
          "type": "uint256"
        },
        {
          "indexed": false,
          "internalType": "uint256",
          "name": "points",
          "type": "uint256"
        }
      ],
      "name": "BadgeMinted",
      "type": "event"
    },
    {
      "anonymous": false,
      "inputs": [
        {
          "indexed": true,
          "internalType": "address",
          "name": "minter",
          "type": "address"
        },
        {
          "indexed": false,
          "internalType": "bool",
          "name": "status",
          "type": "bool"
        }
      ],
      "name": "MinsterStatusUpdated",
      "type": "event"
    },
    {
      "anonymous": false,
      "inputs": [
        {
          "indexed": true,
          "internalType": "address",
          "name": "from",
          "type": "address"
        },
        {
          "indexed": true,
          "internalType": "address",
          "name": "to",
          "type": "address"
        },
        {
          "indexed": true,
          "internalType": "uint256",
          "name": "tokenId",
          "type": "uint256"
        }
      ],
      "name": "Transfer",
      "type": "event"
    },
    {
      "inputs": [
        {
          "internalType": "address",
          "name": "to",
          "type": "address"
        },
        {
          "internalType": "uint256",
          "name": "tokenId",
          "type": "uint256"
        }
      ],
      "name": "approve",
      "outputs": [],
      "stateMutability": "nonpayable",
      "type": "function"
    },
    {
      "inputs": [
        {
          "internalType": "uint256",
          "name": "",
          "type": "uint256"
        }
      ],
      "name": "badgeData",
      "outputs": [
        {
          "internalType": "uint256",
          "name": "eventId",
          "type": "uint256"
        },
        {
          "internalType": "uint256",
          "name": "points",
          "type": "uint256"
        },
        {
          "internalType": "uint256",
          "name": "timestamp",
          "type": "uint256"
        }
      ],
      "stateMutability": "view",
      "type": "function"
    },
    {
      "inputs": [
        {
          "internalType": "address",
          "name": "owner",
          "type": "address"
        }
      ],
      "name": "balanceOf",
      "outputs": [
        {
          "internalType": "uint256",
          "name": "",
          "type": "uint256"
        }
      ],
      "stateMutability": "view",
      "type": "function"
    },
    {
      "inputs": [
        {
          "internalType": "uint256",
          "name": "tokenId",
          "type": "uint256"
        }
      ],
      "name": "getApproved",
      "outputs": [
        {
          "internalType": "address",
          "name": "",
          "type": "address"
        }
      ],
      "stateMutability": "view",
      "type": "function"
    },
    {
      "inputs": [
        {
          "internalType": "uint256",
          "name": "tokenId",
          "type": "uint256"
        }
      ],
      "name": "getBadgeData",
      "outputs": [
        {
          "internalType": "uint256",
          "name": "eventId",
          "type": "uint256"
        },
        {
          "internalType": "uint256",
          "name": "points",
          "type": "uint256"
        },
        {
          "internalType": "uint256",
          "name": "timestamp",
          "type": "uint256"
        }
      ],
      "stateMutability": "view",
      "type": "function"
    },
    {
      "inputs": [
        {
          "internalType": "address",
          "name": "",
          "type": "address"
        },
        {
          "internalType": "uint256",
          "name": "",
          "type": "uint256"
        }
      ],
      "name": "hasCheckedIn",
      "outputs": [
        {
          "internalType": "bool",
          "name": "",
          "type": "bool"
        }
      ],
      "stateMutability": "view",
      "type": "function"
    },
    {
      "inputs": [
        {
          "internalType": "address",
          "name": "owner",
          "type": "address"
        },
        {
          "internalType": "address",
          "name": "operator",
          "type": "address"
        }
      ],
      "name": "isApprovedForAll",
      "outputs": [
        {
          "internalType": "bool",
          "name": "",
          "type": "bool"
        }
      ],
      "stateMutability": "view",
      "type": "function"
    },
    {
      "inputs": [
        {
          "internalType": "address",
          "name": "",
          "type": "address"
        }
      ],
      "name": "isMinster",
      "outputs": [
        {
          "internalType": "bool",
          "name": "",
          "type": "bool"
        }
      ],
      "stateMutability": "view",
      "type": "function"
    },
    {
      "inputs": [
        {
          "internalType": "address",
          "name": "to",
          "type": "address"
        },
        {
          "internalType": "uint256",
          "name": "eventId",
          "type": "uint256"
        },
        {
          "internalType": "uint256",
          "name": "points",
          "type": "uint256"
        }
      ],
      "name": "mintProofBadge",
      "outputs": [
        {
          "internalType": "uint256",
          "name": "",
          "type": "uint256"
        }
      ],
      "stateMutability": "nonpayable",
      "type": "function"
    },
    {
      "inputs": [],
      "name": "name",
      "outputs": [
        {
          "internalType": "string",
          "name": "",
          "type": "string"
        }
      ],
      "stateMutability": "view",
      "type": "function"
    },
    {
      "inputs": [],
      "name": "organiser",
      "outputs": [
        {
          "internalType": "address",
          "name": "",
          "type": "address"
        }
      ],
      "stateMutability": "view",
      "type": "function"
    },
    {
      "inputs": [
        {
          "internalType": "uint256",
          "name": "tokenId",
          "type": "uint256"
        }
      ],
      "name": "ownerOf",
      "outputs": [
        {
          "internalType": "address",
          "name": "",
          "type": "address"
        }
      ],
      "stateMutability": "view",
      "type": "function"
    },
    {
      "inputs": [
        {
          "internalType": "address",
          "name": "from",
          "type": "address"
        },
        {
          "internalType": "address",
          "name": "to",
          "type": "address"
        },
        {
          "internalType": "uint256",
          "name": "tokenId",
          "type": "uint256"
        }
      ],
      "name": "safeTransferFrom",
      "outputs": [],
      "stateMutability": "nonpayable",
      "type": "function"
    },
    {
      "inputs": [
        {
          "internalType": "address",
          "name": "from",
          "type": "address"
        },
        {
          "internalType": "address",
          "name": "to",
          "type": "address"
        },
        {
          "internalType": "uint256",
          "name": "tokenId",
          "type": "uint256"
        },
        {
          "internalType": "bytes",
          "name": "data",
          "type": "bytes"
        }
      ],
      "name": "safeTransferFrom",
      "outputs": [],
      "stateMutability": "nonpayable",
      "type": "function"
    },
    {
      "inputs": [
        {
          "internalType": "address",
          "name": "operator",
          "type": "address"
        },
        {
          "internalType": "bool",
          "name": "approved",
          "type": "bool"
        }
      ],
      "name": "setApprovalForAll",
      "outputs": [],
      "stateMutability": "nonpayable",
      "type": "function"
    },
    {
      "inputs": [
        {
          "internalType": "address",
          "name": "minter",
          "type": "address"
        },
        {
          "internalType": "bool",
          "name": "status",
          "type": "bool"
        }
      ],
      "name": "setMinterStatus",
      "outputs": [],
      "stateMutability": "nonpayable",
      "type": "function"
    },
    {
      "inputs": [
        {
          "internalType": "bytes4",
          "name": "interfaceId",
          "type": "bytes4"
        }
      ],
      "name": "supportsInterface",
      "outputs": [
        {
          "internalType": "bool",
          "name": "",
          "type": "bool"
        }
      ],
      "stateMutability": "view",
      "type": "function"
    },
    {
      "inputs": [],
      "name": "symbol",
      "outputs": [
        {
          "internalType": "string",
          "name": "",
          "type": "string"
        }
      ],
      "stateMutability": "view",
      "type": "function"
    },
    {
      "inputs": [
        {
          "internalType": "uint256",
          "name": "tokenId",
          "type": "uint256"
        }
      ],
      "name": "tokenURI",
      "outputs": [
        {
          "internalType": "string",
          "name": "",
          "type": "string"
        }
      ],
      "stateMutability": "view",
      "type": "function"
    },
    {
      "inputs": [],
      "name": "totalMinted",
      "outputs": [
        {
          "internalType": "uint256",
          "name": "",
          "type": "uint256"
        }
      ],
      "stateMutability": "view",
      "type": "function"
    },
    {
      "inputs": [
        {
          "internalType": "address",
          "name": "from",
          "type": "address"
        },
        {
          "internalType": "address",
          "name": "to",
          "type": "address"
        },
        {
          "internalType": "uint256",
          "name": "tokenId",
          "type": "uint256"
        }
      ],
      "name": "transferFrom",
      "outputs": [],
      "stateMutability": "nonpayable",
      "type": "function"
    }
  ],
  "bytecode": "0x608060405234801562000010575f80fd5b506040518060400160405280601781526020017f4564754149204f726269742050726f6f6620426164676500000000000000000081525060405180604001604052806005815260200164282927a7a360d91b815250815f908162000075919062000158565b50600162000084828262000158565b5050600680546001600160a01b031916339081179091555f908152600760205260409020805460ff191660011790555062000224565b634e487b7160e01b5f52604160045260245ffd5b600181811c90821680620000e357607f821691505b6020821081036200010257634e487b7160e01b5f52602260045260245ffd5b50919050565b601f8211156200015357805f5260205f20601f840160051c810160208510156200012f5750805b601f840160051c820191505b8181101562000150575f81556001016200013b565b50505b505050565b81516001600160401b03811115620001745762000174620000ba565b6200018c81620001858454620000ce565b8462000108565b602080601f831160018114620001c2575f8415620001aa5750858301515b5f19600386901b1c1916600185901b1785556200021c565b5f85815260208120601f198616915b82811015620001f257888601518255948401946001909101908401620001d1565b50858210156200021057878501515f19600388901b60f8161c191681555b505060018460011b0185555b505050505050565b61145b80620002325f395ff3fe608060405234801561000f575f80fd5b5060043610610132575f3560e01c80637e537486116100b4578063a6ea105111610079578063a6ea1051146102b2578063b0246382146102df578063b88d4fde14610301578063c87b56dd14610314578063e985e9c514610327578063f00c298d1461033a575f80fd5b80637e5374861461024e57806395d89b4114610261578063a22cb46514610269578063a2309ff81461027c578063a683f32b14610284575f80fd5b8063382e6676116100fa578063382e6676146101c657806342842e0e146101e75780636352211e146101fa5780636e7b1c851461020d57806370a082311461023b575f80fd5b806301ffc9a71461013657806306fdde031461015e578063081812fc14610173578063095ea7b31461019e57806323b872dd146101b3575b5f80fd5b61014961014436600461109b565b61034d565b60405190151581526020015b60405180910390f35b61016661039e565b6040516101559190611103565b610186610181366004611115565b61042d565b6040516001600160a01b039091168152602001610155565b6101b16101ac366004611147565b610454565b005b6101b16101c136600461116f565b610463565b6101d96101d43660046111a8565b6104f1565b604051908152602001610155565b6101b16101f536600461116f565b6106bc565b610186610208366004611115565b6106db565b61022061021b366004611115565b6106e5565b60408051938452602084019290925290820152606001610155565b6101d96102493660046111d8565b61072f565b600654610186906001600160a01b031681565b610166610774565b6101b16102773660046111f1565b610783565b600a546101d9565b610220610292366004611115565b60086020525f908152604090208054600182015460029092015490919083565b6101496102c0366004611147565b600960209081525f928352604080842090915290825290205460ff1681565b6101496102ed3660046111d8565b60076020525f908152604090205460ff1681565b6101b161030f36600461123e565b61078e565b610166610322366004611115565b6107a6565b610149610335366004611313565b610817565b6101b16103483660046111f1565b610844565b5f6001600160e01b031982166380ac58cd60e01b148061037d57506001600160e01b03198216635b5e139f60e01b145b8061039857506301ffc9a760e01b6001600160e01b03198316145b92915050565b60605f80546103ac90611344565b80601f01602080910402602001604051908101604052809291908181526020018280546103d890611344565b80156104235780601f106103fa57610100808354040283529160200191610423565b820191905f5260205f20905b81548152906001019060200180831161040657829003601f168201915b5050505050905090565b5f610437826108fc565b505f828152600460205260409020546001600160a01b0316610398565b61045f828233610934565b5050565b6001600160a01b03821661049157604051633250574960e11b81525f60048201526024015b60405180910390fd5b5f61049d838333610941565b9050836001600160a01b0316816001600160a01b0316146104eb576040516364283d7b60e01b81526001600160a01b0380861660048301526024820184905282166044820152606401610488565b50505050565b6006545f906001600160a01b031633148061051a5750335f9081526007602052604090205460ff165b61055c5760405162461bcd60e51b815260206004820152601360248201527212da1bdb99c818dbc81c5d5e595b881b5a5b9d606a1b6044820152606401610488565b6001600160a01b0384165f90815260096020908152604080832086845290915290205460ff16156105f55760405162461bcd60e51b815260206004820152603760248201527f53696e68207669656e206e617920646120636865636b2d696e207661206e686160448201527f6e2062616467652063686f207375206b69656e206e61790000000000000000006064820152608401610488565b600a80545f91826106058361137c565b91905055905061061585826109de565b604080516060810182528581526020808201868152428385019081525f8681526008845285812094518555915160018086019190915590516002909401939093556001600160a01b03891680825260098352848220898352835290849020805460ff1916909317909255915185815286928492917f387bb3eb7501c3ed1b38da9521bab0a6604a0ec69bf681eab8c74ba6d3eea15a910160405180910390a4949350505050565b6106d683838360405180602001604052805f81525061078e565b505050565b5f610398826108fc565b5f805f6106f1846108fc565b5050505f9182525060086020908152604091829020825160608101845281548082526001830154938201849052600290920154930183905292909190565b5f6001600160a01b038216610759576040516322718ad960e21b81525f6004820152602401610488565b506001600160a01b03165f9081526003602052604090205490565b6060600180546103ac90611344565b61045f3383836109f7565b610799848484610463565b6104eb3385858585610abe565b60606107b1826108fc565b505f6107c760408051602081019091525f815290565b90505f8151116107e55760405180602001604052805f815250610810565b806107ef84610be6565b6040516020016108009291906113a0565b6040516020818303038152906040525b9392505050565b6001600160a01b039182165f90815260056020908152604080832093909416825291909152205460ff1690565b6006546001600160a01b0316331461089e5760405162461bcd60e51b815260206004820152601d60248201527f4368692063687520636f6e7472616374206d6f6920636f20717579656e0000006044820152606401610488565b6001600160a01b0382165f81815260076020908152604091829020805460ff191685151590811790915591519182527f5ea6612ad016848538cb9fa1981fc75a1181b00f4401c3845fab046c176092b0910160405180910390a25050565b5f818152600260205260408120546001600160a01b03168061039857604051637e27328960e01b815260048101849052602401610488565b6106d68383836001610c76565b5f828152600260205260408120546001600160a01b031680158061096c57506001600160a01b038516155b6109ca5760405162461bcd60e51b815260206004820152602960248201527f534254206b686f6e67207468652063687579656e206e68756f6e6720686f6163604482015268206d75612062616e2160b81b6064820152608401610488565b6109d5858585610d7a565b95945050505050565b61045f828260405180602001604052805f815250610e6c565b6001600160a01b038316610a205760405163a9fbf51f60e01b81525f6004820152602401610488565b6001600160a01b038216610a5257604051630b61174360e31b81526001600160a01b0383166004820152602401610488565b6001600160a01b038381165f81815260056020908152604080832094871680845294825291829020805460ff191686151590811790915591519182527f17307eab39ab6107e8899845ad3d59bd9653f200f220920489ca2b5937696c31910160405180910390a3505050565b6001600160a01b0383163b15610bdf57604051630a85bd0160e11b81526001600160a01b0384169063150b7a0290610b009088908890879087906004016113ce565b6020604051808303815f875af1925050508015610b3a575060408051601f3d908101601f19168201909252610b379181019061140a565b60015b610ba1573d808015610b67576040519150601f19603f3d011682016040523d82523d5f602084013e610b6c565b606091505b5080515f03610b9957604051633250574960e11b81526001600160a01b0385166004820152602401610488565b805160208201fd5b6001600160e01b03198116630a85bd0160e11b14610bdd57604051633250574960e11b81526001600160a01b0385166004820152602401610488565b505b5050505050565b60605f610bf283610e83565b60010190505f8167ffffffffffffffff811115610c1157610c1161122a565b6040519080825280601f01601f191660200182016040528015610c3b576020820181803683370190505b5090508181016020015b5f19016f181899199a1a9b1b9c1cb0b131b232b360811b600a86061a8153600a8504945084610c4557509392505050565b8080610c8a57506001600160a01b03821615155b15610d4b575f610c99846108fc565b90506001600160a01b03831615801590610cc55750826001600160a01b0316816001600160a01b031614155b8015610cd85750610cd68184610817565b155b15610d015760405163a9fbf51f60e01b81526001600160a01b0384166004820152602401610488565b8115610d495783856001600160a01b0316826001600160a01b03167f8c5be1e5ebec7d5bd14f71427d1e84f3dd0314c0f7b2291e5b200ac8c7c3b92560405160405180910390a45b505b50505f90815260046020526040902080546001600160a01b0319166001600160a01b0392909216919091179055565b5f828152600260205260408120546001600160a01b0390811690831615610da657610da6818486610f5a565b6001600160a01b03811615610de057610dc15f855f80610c76565b6001600160a01b0381165f90815260036020526040902080545f190190555b6001600160a01b03851615610e0e576001600160a01b0385165f908152600360205260409020805460010190555b5f8481526002602052604080822080546001600160a01b0319166001600160a01b0389811691821790925591518793918516917fddf252ad1be2c89b69c2b068fc378daa952ba7f163c4a11628f55a4df523b3ef91a4949350505050565b610e768383610fbe565b6106d6335f858585610abe565b5f8072184f03e93ff9f4daa797ed6e38ed64bf6a1f0160401b8310610ec15772184f03e93ff9f4daa797ed6e38ed64bf6a1f0160401b830492506040015b6d04ee2d6d415b85acef81000000008310610eed576d04ee2d6d415b85acef8100000000830492506020015b662386f26fc100008310610f0b57662386f26fc10000830492506010015b6305f5e1008310610f23576305f5e100830492506008015b6127108310610f3757612710830492506004015b60648310610f49576064830492506002015b600a83106103985760010192915050565b610f6583838361101f565b6106d6576001600160a01b038316610f9357604051637e27328960e01b815260048101829052602401610488565b60405163177e802f60e01b81526001600160a01b038316600482015260248101829052604401610488565b6001600160a01b038216610fe757604051633250574960e11b81525f6004820152602401610488565b5f610ff383835f610941565b90506001600160a01b038116156106d6576040516339e3563760e11b81525f6004820152602401610488565b5f6001600160a01b0383161580159061107b5750826001600160a01b0316846001600160a01b0316148061105857506110588484610817565b8061107b57505f828152600460205260409020546001600160a01b038481169116145b949350505050565b6001600160e01b031981168114611098575f80fd5b50565b5f602082840312156110ab575f80fd5b813561081081611083565b5f5b838110156110d05781810151838201526020016110b8565b50505f910152565b5f81518084526110ef8160208601602086016110b6565b601f01601f19169290920160200192915050565b602081525f61081060208301846110d8565b5f60208284031215611125575f80fd5b5035919050565b80356001600160a01b0381168114611142575f80fd5b919050565b5f8060408385031215611158575f80fd5b6111618361112c565b946020939093013593505050565b5f805f60608486031215611181575f80fd5b61118a8461112c565b92506111986020850161112c565b9150604084013590509250925092565b5f805f606084860312156111ba575f80fd5b6111c38461112c565b95602085013595506040909401359392505050565b5f602082840312156111e8575f80fd5b6108108261112c565b5f8060408385031215611202575f80fd5b61120b8361112c565b91506020830135801515811461121f575f80fd5b809150509250929050565b634e487b7160e01b5f52604160045260245ffd5b5f805f8060808587031215611251575f80fd5b61125a8561112c565b93506112686020860161112c565b925060408501359150606085013567ffffffffffffffff8082111561128b575f80fd5b818701915087601f83011261129e575f80fd5b8135818111156112b0576112b061122a565b604051601f8201601f19908116603f011681019083821181831017156112d8576112d861122a565b816040528281528a60208487010111156112f0575f80fd5b826020860160208301375f60208483010152809550505050505092959194509250565b5f8060408385031215611324575f80fd5b61132d8361112c565b915061133b6020840161112c565b90509250929050565b600181811c9082168061135857607f821691505b60208210810361137657634e487b7160e01b5f52602260045260245ffd5b50919050565b5f6001820161139957634e487b7160e01b5f52601160045260245ffd5b5060010190565b5f83516113b18184602088016110b6565b8351908301906113c58183602088016110b6565b01949350505050565b6001600160a01b03858116825284166020820152604081018390526080606082018190525f90611400908301846110d8565b9695505050505050565b5f6020828403121561141a575f80fd5b81516108108161108356fea26469706673582212207a5ebb2d68e7becd35b1d95f685dc295235d5be29c8f00cb2e0606fc03f9e76264736f6c63430008180033",
  "linkReferences": {},
  "deployedLinkReferences": {}
}